{
  "_format": "hh-sol-artifact-1",
  "contractName": "Swap",
  "sourceName": "contracts/Swap.sol",
  "abi": [
    {
      "inputs": [],
      "name": "poolFee",
      "outputs": [
        {
          "internalType": "uint24",
          "name": "",
          "type": "uint24"
        }
      ],
      "stateMutability": "view",
      "type": "function"
    },
    {
      "inputs": [],
      "name": "routerAddress",
      "outputs": [
        {
          "internalType": "address",
          "name": "",
          "type": "address"
        }
      ],
      "stateMutability": "view",
      "type": "function"
    },
    {
      "inputs": [
        {
          "internalType": "uint256",
          "name": "amountIn",
          "type": "uint256"
        },
        {
          "internalType": "address",
          "name": "tokenIn",
          "type": "address"
        },
        {
          "internalType": "address",
          "name": "tokenOut",
          "type": "address"
        }
      ],
      "name": "swapExactInputSingle",
      "outputs": [
        {
          "internalType": "uint256",
          "name": "amountOut",
          "type": "uint256"
        }
      ],
      "stateMutability": "nonpayable",
      "type": "function"
    },
    {
      "inputs": [
        {
          "internalType": "uint256",
          "name": "amountOut",
          "type": "uint256"
        },
        {
          "internalType": "uint256",
          "name": "amountInMaximum",
          "type": "uint256"
        },
        {
          "internalType": "address",
          "name": "tokenIn",
          "type": "address"
        },
        {
          "internalType": "address",
          "name": "tokenOut",
          "type": "address"
        }
      ],
      "name": "swapExactOutputSingle",
      "outputs": [
        {
          "internalType": "uint256",
          "name": "amountIn",
          "type": "uint256"
        }
      ],
      "stateMutability": "nonpayable",
      "type": "function"
    },
    {
      "inputs": [],
      "name": "swapRouter",
      "outputs": [
        {
          "internalType": "contract ISwapRouter",
          "name": "",
          "type": "address"
        }
      ],
      "stateMutability": "view",
      "type": "function"
    }
  ],
  "bytecode": "0x60a060405273e592427a0aece92de3edee1f18e0157c0586156473ffffffffffffffffffffffffffffffffffffffff1660809073ffffffffffffffffffffffffffffffffffffffff1660601b81525034801561005a57600080fd5b5060805160601c610c4161009160003980610158528061028952806103615280610491528061056252806106905250610c416000f3fe608060405234801561001057600080fd5b50600436106100575760003560e01c8063089fe6aa1461005c5780633268cc561461007a5780634ce4dca5146100985780639d0b14c5146100c8578063c31c9c07146100f8575b600080fd5b610064610116565b6040516100719190610acd565b60405180910390f35b61008261011c565b60405161008f91906109e4565b60405180910390f35b6100b260048036038101906100ad9190610758565b610134565b6040516100bf9190610ae8565b60405180910390f35b6100e260048036038101906100dd91906107a7565b61033d565b6040516100ef9190610ae8565b60405180910390f35b61010061068e565b60405161010d9190610a7a565b60405180910390f35b610bb881565b73e592427a0aece92de3edee1f18e0157c0586156481565b6000808390508073ffffffffffffffffffffffffffffffffffffffff1663095ea7b37f0000000000000000000000000000000000000000000000000000000000000000876040518363ffffffff1660e01b8152600401610195929190610a51565b602060405180830381600087803b1580156101af57600080fd5b505af11580156101c3573d6000803e3d6000fd5b505050506040513d601f19601f820116820180604052508101906101e79190610706565b5060006040518061010001604052808673ffffffffffffffffffffffffffffffffffffffff1681526020018573ffffffffffffffffffffffffffffffffffffffff168152602001610bb862ffffff1681526020013373ffffffffffffffffffffffffffffffffffffffff16815260200142815260200187815260200160008152602001600073ffffffffffffffffffffffffffffffffffffffff1681525090507f000000000000000000000000000000000000000000000000000000000000000073ffffffffffffffffffffffffffffffffffffffff1663414bf389826040518263ffffffff1660e01b81526004016102e09190610a95565b602060405180830381600087803b1580156102fa57600080fd5b505af115801561030e573d6000803e3d6000fd5b505050506040513d601f19601f82011682018060405250810190610332919061072f565b925050509392505050565b6000808390508073ffffffffffffffffffffffffffffffffffffffff1663095ea7b37f0000000000000000000000000000000000000000000000000000000000000000876040518363ffffffff1660e01b815260040161039e929190610a51565b602060405180830381600087803b1580156103b857600080fd5b505af11580156103cc573d6000803e3d6000fd5b505050506040513d601f19601f820116820180604052508101906103f09190610706565b5060006040518061010001604052808673ffffffffffffffffffffffffffffffffffffffff1681526020018573ffffffffffffffffffffffffffffffffffffffff168152602001610bb862ffffff1681526020013373ffffffffffffffffffffffffffffffffffffffff168152602001428152602001888152602001878152602001600073ffffffffffffffffffffffffffffffffffffffff1681525090507f000000000000000000000000000000000000000000000000000000000000000073ffffffffffffffffffffffffffffffffffffffff1663db3e2198826040518263ffffffff1660e01b81526004016104e89190610ab1565b602060405180830381600087803b15801561050257600080fd5b505af1158015610516573d6000803e3d6000fd5b505050506040513d601f19601f8201168201806040525081019061053a919061072f565b925085831015610684578173ffffffffffffffffffffffffffffffffffffffff1663095ea7b37f000000000000000000000000000000000000000000000000000000000000000060006040518363ffffffff1660e01b81526004016105a0929190610a28565b602060405180830381600087803b1580156105ba57600080fd5b505af11580156105ce573d6000803e3d6000fd5b505050506040513d601f19601f820116820180604052508101906105f29190610706565b508173ffffffffffffffffffffffffffffffffffffffff1663a9059cbb338589036040518363ffffffff1660e01b81526004016106309291906109ff565b602060405180830381600087803b15801561064a57600080fd5b505af115801561065e573d6000803e3d6000fd5b505050506040513d601f19601f820116820180604052508101906106829190610706565b505b5050949350505050565b7f000000000000000000000000000000000000000000000000000000000000000081565b6000813590506106c181610bc6565b92915050565b6000815190506106d681610bdd565b92915050565b6000813590506106eb81610bf4565b92915050565b60008151905061070081610bf4565b92915050565b60006020828403121561071857600080fd5b6000610726848285016106c7565b91505092915050565b60006020828403121561074157600080fd5b600061074f848285016106f1565b91505092915050565b60008060006060848603121561076d57600080fd5b600061077b868287016106dc565b935050602061078c868287016106b2565b925050604061079d868287016106b2565b9150509250925092565b600080600080608085870312156107bd57600080fd5b60006107cb878288016106dc565b94505060206107dc878288016106dc565b93505060406107ed878288016106b2565b92505060606107fe878288016106b2565b91505092959194509250565b61081381610b5a565b82525050565b61082281610b03565b82525050565b61083181610b03565b82525050565b61084081610b6c565b82525050565b61084f81610b90565b82525050565b6101008201600082015161086c6000850182610819565b50602082015161087f6020850182610819565b50604082015161089260408501826109a8565b5060608201516108a56060850182610819565b5060808201516108b860808501826109c6565b5060a08201516108cb60a08501826109c6565b5060c08201516108de60c08501826109c6565b5060e08201516108f160e0850182610999565b50505050565b6101008201600082015161090e6000850182610819565b5060208201516109216020850182610819565b50604082015161093460408501826109a8565b5060608201516109476060850182610819565b50608082015161095a60808501826109c6565b5060a082015161096d60a08501826109c6565b5060c082015161098060c08501826109c6565b5060e082015161099360e0850182610999565b50505050565b6109a281610b21565b82525050565b6109b181610b41565b82525050565b6109c081610b41565b82525050565b6109cf81610b50565b82525050565b6109de81610b50565b82525050565b60006020820190506109f96000830184610828565b92915050565b6000604082019050610a14600083018561080a565b610a2160208301846109d5565b9392505050565b6000604082019050610a3d6000830185610828565b610a4a6020830184610846565b9392505050565b6000604082019050610a666000830185610828565b610a7360208301846109d5565b9392505050565b6000602082019050610a8f6000830184610837565b92915050565b600061010082019050610aab6000830184610855565b92915050565b600061010082019050610ac760008301846108f7565b92915050565b6000602082019050610ae260008301846109b7565b92915050565b6000602082019050610afd60008301846109d5565b92915050565b6000610b0e82610b21565b9050919050565b60008115159050919050565b600073ffffffffffffffffffffffffffffffffffffffff82169050919050565b600062ffffff82169050919050565b6000819050919050565b6000610b6582610ba2565b9050919050565b6000610b7782610b7e565b9050919050565b6000610b8982610b21565b9050919050565b6000610b9b82610b50565b9050919050565b6000610bad82610bb4565b9050919050565b6000610bbf82610b21565b9050919050565b610bcf81610b03565b8114610bda57600080fd5b50565b610be681610b15565b8114610bf157600080fd5b50565b610bfd81610b50565b8114610c0857600080fd5b5056fea2646970667358221220494ff0e3e639f73b95992eac638a735522ed164bc00049d0b11e73a8be764d8364736f6c63430007060033",
  "linkReferences": {},
  "deployedLinkReferences": {}
}