{
  "_format": "hh-sol-artifact-1",
  "contractName": "Swap",
  "sourceName": "contracts/Swap.sol",
  "abi": [
    {
      "inputs": [],
      "name": "poolFee",
      "outputs": [
        {
          "internalType": "uint24",
          "name": "",
          "type": "uint24"
        }
      ],
      "stateMutability": "view",
      "type": "function"
    },
    {
      "inputs": [],
      "name": "routerAddress",
      "outputs": [
        {
          "internalType": "address",
          "name": "",
          "type": "address"
        }
      ],
      "stateMutability": "view",
      "type": "function"
    },
    {
      "inputs": [
        {
          "internalType": "uint256",
          "name": "amountIn",
          "type": "uint256"
        },
        {
          "internalType": "address",
          "name": "tokenIn",
          "type": "address"
        },
        {
          "internalType": "address",
          "name": "tokenOut",
          "type": "address"
        },
        {
          "internalType": "address",
          "name": "executerAdress",
          "type": "address"
        }
      ],
      "name": "swapExactInputSingle",
      "outputs": [
        {
          "internalType": "uint256",
          "name": "amountOut",
          "type": "uint256"
        }
      ],
      "stateMutability": "nonpayable",
      "type": "function"
    },
    {
      "inputs": [
        {
          "internalType": "uint256",
          "name": "amountOut",
          "type": "uint256"
        },
        {
          "internalType": "uint256",
          "name": "amountInMaximum",
          "type": "uint256"
        },
        {
          "internalType": "address",
          "name": "tokenIn",
          "type": "address"
        },
        {
          "internalType": "address",
          "name": "tokenOut",
          "type": "address"
        },
        {
          "internalType": "address",
          "name": "executerAdress",
          "type": "address"
        }
      ],
      "name": "swapExactOutputSingle",
      "outputs": [
        {
          "internalType": "uint256",
          "name": "amountIn",
          "type": "uint256"
        }
      ],
      "stateMutability": "nonpayable",
      "type": "function"
    },
    {
      "inputs": [],
      "name": "swapRouter",
      "outputs": [
        {
          "internalType": "contract ISwapRouter",
          "name": "",
          "type": "address"
        }
      ],
      "stateMutability": "view",
      "type": "function"
    }
  ],
  "bytecode": "0x60a060405273e592427a0aece92de3edee1f18e0157c0586156473ffffffffffffffffffffffffffffffffffffffff1660809073ffffffffffffffffffffffffffffffffffffffff1660601b81525034801561005a57600080fd5b5060805160601c610c6b610091600039806101585280610288528061035952806104aa52806105db52806106925250610c6b6000f3fe608060405234801561001057600080fd5b50600436106100575760003560e01c8063089fe6aa1461005c5780633268cc561461007a578063a0c56f8914610098578063b025dd7f146100c8578063c31c9c07146100f8575b600080fd5b610064610116565b6040516100719190610af7565b60405180910390f35b61008261011c565b60405161008f9190610a0e565b60405180910390f35b6100b260048036038101906100ad91906107bd565b610134565b6040516100bf9190610b12565b60405180910390f35b6100e260048036038101906100dd919061075a565b610486565b6040516100ef9190610b12565b60405180910390f35b610100610690565b60405161010d9190610aa4565b60405180910390f35b610bb881565b73e592427a0aece92de3edee1f18e0157c0586156481565b6000808490508073ffffffffffffffffffffffffffffffffffffffff1663095ea7b37f0000000000000000000000000000000000000000000000000000000000000000886040518363ffffffff1660e01b8152600401610195929190610a7b565b602060405180830381600087803b1580156101af57600080fd5b505af11580156101c3573d6000803e3d6000fd5b505050506040513d601f19601f820116820180604052508101906101e79190610708565b5060006040518061010001604052808773ffffffffffffffffffffffffffffffffffffffff1681526020018673ffffffffffffffffffffffffffffffffffffffff168152602001610bb862ffffff1681526020018573ffffffffffffffffffffffffffffffffffffffff168152602001428152602001898152602001888152602001600073ffffffffffffffffffffffffffffffffffffffff1681525090507f000000000000000000000000000000000000000000000000000000000000000073ffffffffffffffffffffffffffffffffffffffff1663db3e2198826040518263ffffffff1660e01b81526004016102df9190610adb565b602060405180830381600087803b1580156102f957600080fd5b505af115801561030d573d6000803e3d6000fd5b505050506040513d601f19601f820116820180604052508101906103319190610731565b92508683101561047b578173ffffffffffffffffffffffffffffffffffffffff1663095ea7b37f000000000000000000000000000000000000000000000000000000000000000060006040518363ffffffff1660e01b8152600401610397929190610a52565b602060405180830381600087803b1580156103b157600080fd5b505af11580156103c5573d6000803e3d6000fd5b505050506040513d601f19601f820116820180604052508101906103e99190610708565b508173ffffffffffffffffffffffffffffffffffffffff1663a9059cbb33858a036040518363ffffffff1660e01b8152600401610427929190610a29565b602060405180830381600087803b15801561044157600080fd5b505af1158015610455573d6000803e3d6000fd5b505050506040513d601f19601f820116820180604052508101906104799190610708565b505b505095945050505050565b6000808490508073ffffffffffffffffffffffffffffffffffffffff1663095ea7b37f0000000000000000000000000000000000000000000000000000000000000000886040518363ffffffff1660e01b81526004016104e7929190610a7b565b602060405180830381600087803b15801561050157600080fd5b505af1158015610515573d6000803e3d6000fd5b505050506040513d601f19601f820116820180604052508101906105399190610708565b5060006040518061010001604052808773ffffffffffffffffffffffffffffffffffffffff1681526020018673ffffffffffffffffffffffffffffffffffffffff168152602001610bb862ffffff1681526020018573ffffffffffffffffffffffffffffffffffffffff16815260200142815260200188815260200160008152602001600073ffffffffffffffffffffffffffffffffffffffff1681525090507f000000000000000000000000000000000000000000000000000000000000000073ffffffffffffffffffffffffffffffffffffffff1663414bf389826040518263ffffffff1660e01b81526004016106329190610abf565b602060405180830381600087803b15801561064c57600080fd5b505af1158015610660573d6000803e3d6000fd5b505050506040513d601f19601f820116820180604052508101906106849190610731565b92505050949350505050565b7f000000000000000000000000000000000000000000000000000000000000000081565b6000813590506106c381610bf0565b92915050565b6000815190506106d881610c07565b92915050565b6000813590506106ed81610c1e565b92915050565b60008151905061070281610c1e565b92915050565b60006020828403121561071a57600080fd5b6000610728848285016106c9565b91505092915050565b60006020828403121561074357600080fd5b6000610751848285016106f3565b91505092915050565b6000806000806080858703121561077057600080fd5b600061077e878288016106de565b945050602061078f878288016106b4565b93505060406107a0878288016106b4565b92505060606107b1878288016106b4565b91505092959194509250565b600080600080600060a086880312156107d557600080fd5b60006107e3888289016106de565b95505060206107f4888289016106de565b9450506040610805888289016106b4565b9350506060610816888289016106b4565b9250506080610827888289016106b4565b9150509295509295909350565b61083d81610b84565b82525050565b61084c81610b2d565b82525050565b61085b81610b2d565b82525050565b61086a81610b96565b82525050565b61087981610bba565b82525050565b610100820160008201516108966000850182610843565b5060208201516108a96020850182610843565b5060408201516108bc60408501826109d2565b5060608201516108cf6060850182610843565b5060808201516108e260808501826109f0565b5060a08201516108f560a08501826109f0565b5060c082015161090860c08501826109f0565b5060e082015161091b60e08501826109c3565b50505050565b610100820160008201516109386000850182610843565b50602082015161094b6020850182610843565b50604082015161095e60408501826109d2565b5060608201516109716060850182610843565b50608082015161098460808501826109f0565b5060a082015161099760a08501826109f0565b5060c08201516109aa60c08501826109f0565b5060e08201516109bd60e08501826109c3565b50505050565b6109cc81610b4b565b82525050565b6109db81610b6b565b82525050565b6109ea81610b6b565b82525050565b6109f981610b7a565b82525050565b610a0881610b7a565b82525050565b6000602082019050610a236000830184610852565b92915050565b6000604082019050610a3e6000830185610834565b610a4b60208301846109ff565b9392505050565b6000604082019050610a676000830185610852565b610a746020830184610870565b9392505050565b6000604082019050610a906000830185610852565b610a9d60208301846109ff565b9392505050565b6000602082019050610ab96000830184610861565b92915050565b600061010082019050610ad5600083018461087f565b92915050565b600061010082019050610af16000830184610921565b92915050565b6000602082019050610b0c60008301846109e1565b92915050565b6000602082019050610b2760008301846109ff565b92915050565b6000610b3882610b4b565b9050919050565b60008115159050919050565b600073ffffffffffffffffffffffffffffffffffffffff82169050919050565b600062ffffff82169050919050565b6000819050919050565b6000610b8f82610bcc565b9050919050565b6000610ba182610ba8565b9050919050565b6000610bb382610b4b565b9050919050565b6000610bc582610b7a565b9050919050565b6000610bd782610bde565b9050919050565b6000610be982610b4b565b9050919050565b610bf981610b2d565b8114610c0457600080fd5b50565b610c1081610b3f565b8114610c1b57600080fd5b50565b610c2781610b7a565b8114610c3257600080fd5b5056fea2646970667358221220fdba300824038913303c54ab592f92985f943cdbe57d430f814ee44a4929270d64736f6c63430007060033",
  "linkReferences": {},
  "deployedLinkReferences": {}
}